{
  "_format": "hh-sol-artifact-1",
  "contractName": "Auction",
  "sourceName": "contracts/Auction.sol",
  "abi": [
    {
      "inputs": [
        {
          "internalType": "uint256",
          "name": "duration",
          "type": "uint256"
        }
      ],
      "stateMutability": "nonpayable",
      "type": "constructor"
    },
    {
      "anonymous": false,
      "inputs": [
        {
          "indexed": false,
          "internalType": "uint256",
          "name": "itemId",
          "type": "uint256"
        },
        {
          "indexed": true,
          "internalType": "address",
          "name": "nft",
          "type": "address"
        },
        {
          "indexed": false,
          "internalType": "uint256",
          "name": "tokenId",
          "type": "uint256"
        },
        {
          "indexed": false,
          "internalType": "uint256",
          "name": "price",
          "type": "uint256"
        },
        {
          "indexed": true,
          "internalType": "address",
          "name": "seller",
          "type": "address"
        }
      ],
      "name": "Listed",
      "type": "event"
    },
    {
      "inputs": [],
      "name": "admin",
      "outputs": [
        {
          "internalType": "address",
          "name": "",
          "type": "address"
        }
      ],
      "stateMutability": "view",
      "type": "function"
    },
    {
      "inputs": [
        {
          "internalType": "uint256",
          "name": "",
          "type": "uint256"
        }
      ],
      "name": "allItems",
      "outputs": [
        {
          "internalType": "uint256",
          "name": "itemId",
          "type": "uint256"
        },
        {
          "internalType": "contract IERC721",
          "name": "nft",
          "type": "address"
        },
        {
          "internalType": "uint256",
          "name": "tokenId",
          "type": "uint256"
        },
        {
          "internalType": "uint256",
          "name": "price",
          "type": "uint256"
        },
        {
          "internalType": "uint256",
          "name": "totalBids",
          "type": "uint256"
        },
        {
          "internalType": "address payable",
          "name": "seller",
          "type": "address"
        },
        {
          "internalType": "address payable",
          "name": "maxBidder",
          "type": "address"
        },
        {
          "internalType": "uint256",
          "name": "maxBid",
          "type": "uint256"
        },
        {
          "internalType": "bool",
          "name": "sold",
          "type": "bool"
        }
      ],
      "stateMutability": "view",
      "type": "function"
    },
    {
      "inputs": [
        {
          "internalType": "uint256",
          "name": "_id",
          "type": "uint256"
        },
        {
          "internalType": "uint256",
          "name": "amount",
          "type": "uint256"
        }
      ],
      "name": "bidPrize",
      "outputs": [],
      "stateMutability": "payable",
      "type": "function"
    },
    {
      "inputs": [],
      "name": "endAuction",
      "outputs": [],
      "stateMutability": "payable",
      "type": "function"
    },
    {
      "inputs": [],
      "name": "endTime",
      "outputs": [
        {
          "internalType": "uint256",
          "name": "",
          "type": "uint256"
        }
      ],
      "stateMutability": "view",
      "type": "function"
    },
    {
      "inputs": [],
      "name": "itemCount",
      "outputs": [
        {
          "internalType": "uint256",
          "name": "",
          "type": "uint256"
        }
      ],
      "stateMutability": "view",
      "type": "function"
    },
    {
      "inputs": [
        {
          "internalType": "contract IERC721",
          "name": "_nft",
          "type": "address"
        },
        {
          "internalType": "uint256",
          "name": "_tokenId",
          "type": "uint256"
        },
        {
          "internalType": "uint256",
          "name": "_price",
          "type": "uint256"
        }
      ],
      "name": "listItem",
      "outputs": [],
      "stateMutability": "nonpayable",
      "type": "function"
    },
    {
      "inputs": [
        {
          "internalType": "uint256",
          "name": "",
          "type": "uint256"
        }
      ],
      "name": "listedItems",
      "outputs": [
        {
          "internalType": "uint256",
          "name": "itemId",
          "type": "uint256"
        },
        {
          "internalType": "contract IERC721",
          "name": "nft",
          "type": "address"
        },
        {
          "internalType": "uint256",
          "name": "tokenId",
          "type": "uint256"
        },
        {
          "internalType": "uint256",
          "name": "price",
          "type": "uint256"
        },
        {
          "internalType": "uint256",
          "name": "totalBids",
          "type": "uint256"
        },
        {
          "internalType": "address payable",
          "name": "seller",
          "type": "address"
        },
        {
          "internalType": "address payable",
          "name": "maxBidder",
          "type": "address"
        },
        {
          "internalType": "uint256",
          "name": "maxBid",
          "type": "uint256"
        },
        {
          "internalType": "bool",
          "name": "sold",
          "type": "bool"
        }
      ],
      "stateMutability": "view",
      "type": "function"
    },
    {
      "inputs": [],
      "name": "startTime",
      "outputs": [
        {
          "internalType": "uint256",
          "name": "",
          "type": "uint256"
        }
      ],
      "stateMutability": "view",
      "type": "function"
    }
  ],
  "bytecode": "0x60806040523480156200001157600080fd5b5060405162001e0638038062001e068339818101604052810190620000379190620000ec565b600160008190555033600160006101000a81548173ffffffffffffffffffffffffffffffffffffffff021916908373ffffffffffffffffffffffffffffffffffffffff160217905550600060028190555042600381905550806003546200009f91906200014d565b6004819055505062000188565b600080fd5b6000819050919050565b620000c681620000b1565b8114620000d257600080fd5b50565b600081519050620000e681620000bb565b92915050565b600060208284031215620001055762000104620000ac565b5b60006200011584828501620000d5565b91505092915050565b7f4e487b7100000000000000000000000000000000000000000000000000000000600052601160045260246000fd5b60006200015a82620000b1565b91506200016783620000b1565b92508282019050808211156200018257620001816200011e565b5b92915050565b611c6e80620001986000396000f3fe6080604052600436106100865760003560e01c8063ab84aac311610059578063ab84aac314610135578063d234706114610151578063f851a44014610196578063fe67a54b146101c1578063ff68fa6e146101cb57610086565b80633197cbb61461008b5780636bfb0d01146100b657806378e97925146100e157806389bfd38f1461010c575b600080fd5b34801561009757600080fd5b506100a0610210565b6040516100ad9190611266565b60405180910390f35b3480156100c257600080fd5b506100cb610216565b6040516100d89190611266565b60405180910390f35b3480156100ed57600080fd5b506100f661021c565b6040516101039190611266565b60405180910390f35b34801561011857600080fd5b50610133600480360381019061012e9190611322565b610222565b005b61014f600480360381019061014a9190611375565b610750565b005b34801561015d57600080fd5b50610178600480360381019061017391906113b5565b610adb565b60405161018d9998979695949392919061147d565b60405180910390f35b3480156101a257600080fd5b506101ab610b96565b6040516101b89190611519565b60405180910390f35b6101c9610bbc565b005b3480156101d757600080fd5b506101f260048036038101906101ed91906113b5565b611129565b6040516102079998979695949392919061147d565b60405180910390f35b60045481565b60025481565b60035481565b61022a6111f4565b6000811161026d576040517f08c379a000000000000000000000000000000000000000000000000000000000815260040161026490611591565b60405180910390fd5b60045442106102b1576040517f08c379a00000000000000000000000000000000000000000000000000000000081526004016102a8906115fd565b60405180910390fd5b600260008154809291906102c49061164c565b91905055508273ffffffffffffffffffffffffffffffffffffffff166323b872dd3330856040518463ffffffff1660e01b815260040161030693929190611694565b600060405180830381600087803b15801561032057600080fd5b505af1158015610334573d6000803e3d6000fd5b5050505060405180610120016040528060025481526020018473ffffffffffffffffffffffffffffffffffffffff168152602001838152602001828152602001600081526020013373ffffffffffffffffffffffffffffffffffffffff168152602001600073ffffffffffffffffffffffffffffffffffffffff16815260200160008152602001600015158152506005600060025481526020019081526020016000206000820151816000015560208201518160010160006101000a81548173ffffffffffffffffffffffffffffffffffffffff021916908373ffffffffffffffffffffffffffffffffffffffff16021790555060408201518160020155606082015181600301556080820151816004015560a08201518160050160006101000a81548173ffffffffffffffffffffffffffffffffffffffff021916908373ffffffffffffffffffffffffffffffffffffffff16021790555060c08201518160060160006101000a81548173ffffffffffffffffffffffffffffffffffffffff021916908373ffffffffffffffffffffffffffffffffffffffff16021790555060e082015181600701556101008201518160080160006101000a81548160ff02191690831515021790555090505060066005600060025481526020019081526020016000209080600181540180825580915050600190039060005260206000209060090201600090919091909150600082015481600001556001820160009054906101000a900473ffffffffffffffffffffffffffffffffffffffff168160010160006101000a81548173ffffffffffffffffffffffffffffffffffffffff021916908373ffffffffffffffffffffffffffffffffffffffff1602179055506002820154816002015560038201548160030155600482015481600401556005820160009054906101000a900473ffffffffffffffffffffffffffffffffffffffff168160050160006101000a81548173ffffffffffffffffffffffffffffffffffffffff021916908373ffffffffffffffffffffffffffffffffffffffff1602179055506006820160009054906101000a900473ffffffffffffffffffffffffffffffffffffffff168160060160006101000a81548173ffffffffffffffffffffffffffffffffffffffff021916908373ffffffffffffffffffffffffffffffffffffffff160217905550600782015481600701556008820160009054906101000a900460ff168160080160006101000a81548160ff02191690831515021790555050503373ffffffffffffffffffffffffffffffffffffffff168373ffffffffffffffffffffffffffffffffffffffff167f0d770f67a166dfb160ca3991c3a328328d7d3899464a55a6fa63448ceda49523600254858560405161073b939291906116cb565b60405180910390a361074b611243565b505050565b6107586111f4565b600354421161079c576040517f08c379a00000000000000000000000000000000000000000000000000000000081526004016107939061174e565b60405180910390fd5b60045442106107e0576040517f08c379a00000000000000000000000000000000000000000000000000000000081526004016107d7906117ba565b60405180910390fd5b803414610822576040517f08c379a000000000000000000000000000000000000000000000000000000000815260040161081990611826565b60405180910390fd5b6002548211158015610835575060008210155b610874576040517f08c379a000000000000000000000000000000000000000000000000000000000815260040161086b90611892565b60405180910390fd5b60056000838152602001908152602001600020600301548110156108cd576040517f08c379a00000000000000000000000000000000000000000000000000000000081526004016108c4906118fe565b60405180910390fd5b6005600083815260200190815260200160002060070154811015610926576040517f08c379a000000000000000000000000000000000000000000000000000000000815260040161091d90611990565b60405180910390fd5b6005600083815260200190815260200160002060060160009054906101000a900473ffffffffffffffffffffffffffffffffffffffff1673ffffffffffffffffffffffffffffffffffffffff166108fc60056000858152602001908152602001600020600701549081150290604051600060405180830381858888f193505050501580156109b8573d6000803e3d6000fd5b50806005600084815260200190815260200160002060070181905550336005600084815260200190815260200160002060060160006101000a81548173ffffffffffffffffffffffffffffffffffffffff021916908373ffffffffffffffffffffffffffffffffffffffff160217905550806006600184610a3991906119b0565b81548110610a4a57610a496119e4565b5b906000526020600020906009020160070181905550336006600184610a6f91906119b0565b81548110610a8057610a7f6119e4565b5b906000526020600020906009020160060160006101000a81548173ffffffffffffffffffffffffffffffffffffffff021916908373ffffffffffffffffffffffffffffffffffffffff160217905550610ad7611243565b5050565b60056020528060005260406000206000915090508060000154908060010160009054906101000a900473ffffffffffffffffffffffffffffffffffffffff16908060020154908060030154908060040154908060050160009054906101000a900473ffffffffffffffffffffffffffffffffffffffff16908060060160009054906101000a900473ffffffffffffffffffffffffffffffffffffffff16908060070154908060080160009054906101000a900460ff16905089565b600160009054906101000a900473ffffffffffffffffffffffffffffffffffffffff1681565b600160009054906101000a900473ffffffffffffffffffffffffffffffffffffffff1673ffffffffffffffffffffffffffffffffffffffff163373ffffffffffffffffffffffffffffffffffffffff1614610c4c576040517f08c379a0000000000000000000000000000000000000000000000000000000008152600401610c4390611a85565b60405180910390fd5b6004544211610c90576040517f08c379a0000000000000000000000000000000000000000000000000000000008152600401610c8790611af1565b60405180910390fd5b60005b60068054905081101561111e5760068181548110610cb457610cb36119e4565b5b906000526020600020906009020160050160009054906101000a900473ffffffffffffffffffffffffffffffffffffffff1673ffffffffffffffffffffffffffffffffffffffff166108fc60068381548110610d1357610d126119e4565b5b9060005260206000209060090201600701549081150290604051600060405180830381858888f19350505050158015610d50573d6000803e3d6000fd5b506006805480610d6357610d62611b11565b5b60019003818190600052602060002090600902016000808201600090556001820160006101000a81549073ffffffffffffffffffffffffffffffffffffffff02191690556002820160009055600382016000905560048201600090556005820160006101000a81549073ffffffffffffffffffffffffffffffffffffffff02191690556006820160006101000a81549073ffffffffffffffffffffffffffffffffffffffff021916905560078201600090556008820160006101000a81549060ff02191690555050905560056000600183610e3e9190611b40565b815260200190815260200160002060010160009054906101000a900473ffffffffffffffffffffffffffffffffffffffff1673ffffffffffffffffffffffffffffffffffffffff166323b872dd3060056000600186610e9d9190611b40565b815260200190815260200160002060060160009054906101000a900473ffffffffffffffffffffffffffffffffffffffff1660056000600187610ee09190611b40565b8152602001908152602001600020600201546040518463ffffffff1660e01b8152600401610f1093929190611b95565b600060405180830381600087803b158015610f2a57600080fd5b505af1158015610f3e573d6000803e3d6000fd5b505050506005600080815260200190815260200160002060056000600184610f669190611b40565b8152602001908152602001600020600082015481600001556001820160009054906101000a900473ffffffffffffffffffffffffffffffffffffffff168160010160006101000a81548173ffffffffffffffffffffffffffffffffffffffff021916908373ffffffffffffffffffffffffffffffffffffffff1602179055506002820154816002015560038201548160030155600482015481600401556005820160009054906101000a900473ffffffffffffffffffffffffffffffffffffffff168160050160006101000a81548173ffffffffffffffffffffffffffffffffffffffff021916908373ffffffffffffffffffffffffffffffffffffffff1602179055506006820160009054906101000a900473ffffffffffffffffffffffffffffffffffffffff168160060160006101000a81548173ffffffffffffffffffffffffffffffffffffffff021916908373ffffffffffffffffffffffffffffffffffffffff160217905550600782015481600701556008820160009054906101000a900460ff168160080160006101000a81548160ff02191690831515021790555090505080806111169061164c565b915050610c93565b506000600281905550565b6006818154811061113957600080fd5b90600052602060002090600902016000915090508060000154908060010160009054906101000a900473ffffffffffffffffffffffffffffffffffffffff16908060020154908060030154908060040154908060050160009054906101000a900473ffffffffffffffffffffffffffffffffffffffff16908060060160009054906101000a900473ffffffffffffffffffffffffffffffffffffffff16908060070154908060080160009054906101000a900460ff16905089565b600260005403611239576040517f08c379a000000000000000000000000000000000000000000000000000000000815260040161123090611c18565b60405180910390fd5b6002600081905550565b6001600081905550565b6000819050919050565b6112608161124d565b82525050565b600060208201905061127b6000830184611257565b92915050565b600080fd5b600073ffffffffffffffffffffffffffffffffffffffff82169050919050565b60006112b182611286565b9050919050565b60006112c3826112a6565b9050919050565b6112d3816112b8565b81146112de57600080fd5b50565b6000813590506112f0816112ca565b92915050565b6112ff8161124d565b811461130a57600080fd5b50565b60008135905061131c816112f6565b92915050565b60008060006060848603121561133b5761133a611281565b5b6000611349868287016112e1565b935050602061135a8682870161130d565b925050604061136b8682870161130d565b9150509250925092565b6000806040838503121561138c5761138b611281565b5b600061139a8582860161130d565b92505060206113ab8582860161130d565b9150509250929050565b6000602082840312156113cb576113ca611281565b5b60006113d98482850161130d565b91505092915050565b6000819050919050565b60006114076114026113fd84611286565b6113e2565b611286565b9050919050565b6000611419826113ec565b9050919050565b600061142b8261140e565b9050919050565b61143b81611420565b82525050565b600061144c82611286565b9050919050565b61145c81611441565b82525050565b60008115159050919050565b61147781611462565b82525050565b600061012082019050611493600083018c611257565b6114a0602083018b611432565b6114ad604083018a611257565b6114ba6060830189611257565b6114c76080830188611257565b6114d460a0830187611453565b6114e160c0830186611453565b6114ee60e0830185611257565b6114fc61010083018461146e565b9a9950505050505050505050565b611513816112a6565b82525050565b600060208201905061152e600083018461150a565b92915050565b600082825260208201905092915050565b7f5072696365206d7573742062652067726561746572207468616e207a65726f00600082015250565b600061157b601f83611534565b915061158682611545565b602082019050919050565b600060208201905081810360008301526115aa8161156e565b9050919050565b7f41756374696f6e2068617320656e646564000000000000000000000000000000600082015250565b60006115e7601183611534565b91506115f2826115b1565b602082019050919050565b60006020820190508181036000830152611616816115da565b9050919050565b7f4e487b7100000000000000000000000000000000000000000000000000000000600052601160045260246000fd5b60006116578261124d565b91507fffffffffffffffffffffffffffffffffffffffffffffffffffffffffffffffff82036116895761168861161d565b5b600182019050919050565b60006060820190506116a9600083018661150a565b6116b6602083018561150a565b6116c36040830184611257565b949350505050565b60006060820190506116e06000830186611257565b6116ed6020830185611257565b6116fa6040830184611257565b949350505050565b7f41756374696f6e206e6f74207374617274656400000000000000000000000000600082015250565b6000611738601383611534565b915061174382611702565b602082019050919050565b600060208201905081810360008301526117678161172b565b9050919050565b7f41756374696f6e206973206f7665720000000000000000000000000000000000600082015250565b60006117a4600f83611534565b91506117af8261176e565b602082019050919050565b600060208201905081810360008301526117d381611797565b9050919050565b7f4e6f74207468652073706563696669656420616d6f756e740000000000000000600082015250565b6000611810601883611534565b915061181b826117da565b602082019050919050565b6000602082019050818103600083015261183f81611803565b9050919050565b7f4974656d20646f6573206e6f7420657869737400000000000000000000000000600082015250565b600061187c601383611534565b915061188782611846565b602082019050919050565b600060208201905081810360008301526118ab8161186f565b9050919050565b7f4d7573742062652067726561746572207468616e206d696e696d756d20626964600082015250565b60006118e8602083611534565b91506118f3826118b2565b602082019050919050565b60006020820190508181036000830152611917816118db565b9050919050565b7f4d7573742062652067726561746572207468616e2063757272656e74206d617860008201527f696d756d20626964000000000000000000000000000000000000000000000000602082015250565b600061197a602883611534565b91506119858261191e565b604082019050919050565b600060208201905081810360008301526119a98161196d565b9050919050565b60006119bb8261124d565b91506119c68361124d565b92508282039050818111156119de576119dd61161d565b5b92915050565b7f4e487b7100000000000000000000000000000000000000000000000000000000600052603260045260246000fd5b7f4f6e6c792061646d696e2063616e2063616c6c20746869732066756e6374696f60008201527f6e00000000000000000000000000000000000000000000000000000000000000602082015250565b6000611a6f602183611534565b9150611a7a82611a13565b604082019050919050565b60006020820190508181036000830152611a9e81611a62565b9050919050565b7f41756374696f6e206973207374696c6c206f6e00000000000000000000000000600082015250565b6000611adb601383611534565b9150611ae682611aa5565b602082019050919050565b60006020820190508181036000830152611b0a81611ace565b9050919050565b7f4e487b7100000000000000000000000000000000000000000000000000000000600052603160045260246000fd5b6000611b4b8261124d565b9150611b568361124d565b9250828201905080821115611b6e57611b6d61161d565b5b92915050565b6000611b7f8261140e565b9050919050565b611b8f81611b74565b82525050565b6000606082019050611baa600083018661150a565b611bb76020830185611b86565b611bc46040830184611257565b949350505050565b7f5265656e7472616e637947756172643a207265656e7472616e742063616c6c00600082015250565b6000611c02601f83611534565b9150611c0d82611bcc565b602082019050919050565b60006020820190508181036000830152611c3181611bf5565b905091905056fea26469706673582212205dd1a63c1733d3c8b9206c2663eb6468f629da189e060e1cd6bf3fa55b2c2b4a64736f6c63430008110033",
  "linkReferences": {},
  "deployedLinkReferences": {}
}